:020000040000FA
:100000000C9463000C948B000C948B000C948B006C
:100010000C948B000C948B000C948B000C948B0034
:100020000C948B000C948B000C948B000C947F0927
:100030000C948B000C948B000C948B000C948B0014
:100040000C9435090C948B000C9403090C94DD0876
:100050000C948B000C948B000C948B000C948B00F4
:100060000C948B000C948B000000000024002700EF
:100070002A0000000000250028002B0000000000DE
:1000800023002600290004040404040404040202DA
:100090000202020203030303030301020408102007
:1000A0004080010204081020010204081020000012
:1000B0000008000201000003040700000000000027
:1000C0000000560AD00B11241FBECFEFD8E0DEBFD0
:1000D000CDBF11E0A0E0B1E0EAE2FDE102C0059091
:1000E0000D92A835B107D9F722E0A8E5B1E001C02B
:1000F0001D92A63CB207E1F710E0C2E6D0E004C0D2
:100100002197FE010E94870CC136D107C9F70E94D2
:10011000220B0C94880E0C94000096E0899FD0016D
:100120001124AD5ABD4F90967C936E935F9791E0EA
:1001300091969C939197E091C002F091C1029091A9
:10014000BF02992339F0309751F0811108C0809196
:100150006F020994309719F05C968C91FACF08954C
:10016000CF92DF92EF92FF920F931F9396E0899FB9
:10017000F0011124ED5AFD4F11A2278D30A121303D
:10018000310551F178F02230310509F451C02330A6
:10019000310509F452C01F910F91FF90EF90DF904D
:1001A000CF9008956623B9F361E070E00E948D005E
:1001B0002FB7F8948091850190918601A0918701D5
:1001C000B09188012FBF8093AB029093AC02A093B3
:1001D000AD02B093AE02DFCF9FB7F894C090850117
:1001E000D0908601E0908701F09088019FBF009138
:1001F000AB021091AC022091AD023091AE02C01A58
:10020000D10AE20AF30A0091BD021091BE0230E069
:1002100020E00C151D052E053F0550F462E070E04E
:100220001F910F91FF90EF90DF90CF900C948D0075
:100230006111B1CF63E070E0F3CF70E060E0F0CF28
:10024000AF92BF92CF92DF92EF92FF920F931F93E4
:10025000CF93DF936C017B018B01040F151FEB0122
:100260005E01AE18BF08C017D10759F06991D601D9
:10027000ED91FC910190F081E02DC6010995892B4B
:1002800079F7C501DF91CF911F910F91FF90EF900A
:10029000DF90CF90BF90AF900895FC01538D448DB7
:1002A000252F30E0842F90E0821B930B541710F021
:1002B000CF96089501970895FC01918D828D98172E
:1002C00061F0A28DAE0FBF2FB11D5D968C91928D06
:1002D0009F5F9F73928F90E008958FEF9FEF089537
:1002E000FC01918D828D981731F0828DE80FF11D00
:1002F000858D90E008958FEF9FEF0895FC01918D1B
:10030000228D892F90E0805C9F4F821B91098F7313
:100310009927089589E891E00E947E0121E0892BC8
:1003200009F420E0822F089580E090E0892B29F0E5
:100330000E948A0181110C9400000895FC01A48D93
:10034000A80FB92FB11DA35ABF4F2C91848D90E0F7
:1003500001968F739927848FA689B7892C93A089DA
:10036000B1898C91837080648C93938D848D981364
:1003700006C00288F389E02D80818F7D80830895F7
:10038000EF92FF920F931F93CF93DF93EC0181E0E5
:10039000888F9B8D8C8D98131AC0E889F98980818C
:1003A00085FF15C09FB7F894EE89FF896083E889BF
:1003B000F98980818370806480839FBF81E090E0B1
:1003C000DF91CF911F910F91FF90EF900895F62E3E
:1003D0000B8D10E00F5F1F4F0F731127E02E8C8DD8
:1003E0008E110CC00FB607FCFACFE889F98980811D
:1003F00085FFF5CFCE010E949E01F1CFEB8DEC0F72
:10040000FD2FF11DE35AFF4FF0829FB7F8940B8F39
:10041000EA89FB8980818062CFCFCF93DF93EC01A3
:10042000888D8823B9F0AA89BB89E889F9898C91DC
:1004300085FD03C0808186FD0DC00FB607FCF7CF98
:100440008C9185FFF2CF808185FFEDCFCE010E9498
:100450009E01E9CFDF91CF910895833081F028F498
:10046000813099F08230A9F008958730A9F0883062
:10047000C9F08430B1F4809180008F7D03C08091F9
:1004800080008F7780938000089584B58F7784BD36
:10049000089584B58F7DFBCF8091B0008F778093D6
:1004A000B00008958091B0008F7DF9CFCF93DF9396
:1004B000282F30E0F901E255FF4F8491F901E6560B
:1004C000FF4FD491F901EA57FF4FC491CC23A1F01B
:1004D00081110E942D02EC2FF0E0EE0FFF1FE45877
:1004E000FF4FA591B491EC91ED2381E090E009F4E8
:1004F00080E0DF91CF91089580E090E0FACF862FE1
:100500000C9456021F93CF93DF93282F30E0F9010C
:10051000E255FF4F8491F901E656FF4FD491F9015E
:10052000EA57FF4FC491CC23A9F0162F81110E94E6
:100530002D02EC2FF0E0EE0FFF1FEE58FF4FA591BC
:10054000B4918FB7F894EC91111108C0D095DE23C7
:10055000DC938FBFDF91CF911F910895DE2BF8CFF1
:10056000862F642F0C948202CF93DF9390E0FC01DE
:10057000E656FF4F24918A579F4FFC0184918823B0
:10058000C9F090E0880F991FFC01E859FF4FA59131
:10059000B491FC01EE58FF4FC591D49161110DC08B
:1005A0009FB7F8948C91209582238C93888128237F
:1005B00028839FBFDF91CF910895623051F49FB798
:1005C000F8943C91822F809583238C93E8812E2B85
:1005D000EFCF8FB7F894EC912E2B2C938FBFEACFEF
:1005E000862F642F0C94B4026F927F928F929F9209
:1005F000AF92BF92CF92DF92EF92FF920F931F9331
:10060000CF93DF9381E08093BF028FB7F89440913E
:1006100085015091860160918701709188018FBF9B
:100620008091AF029091B002A091B102B091B2025C
:10063000481B590B6A0B7B0B8091BB029091BC024B
:10064000B0E0A0E084179507A607B70708F01DC122
:10065000C0E08091B902C81760F4E091B502F09152
:10066000B602EC0FF11D62E080810E94B402CF5F00
:10067000F0CF712C812C912C540183948091BA027B
:10068000781608F05FC0072D10E0E091B702F091F6
:10069000B802E00FF11F61E080810E94B402E09196
:1006A000B702F091B802E00FF11F60E080810E9474
:1006B0008202D501C401072C04C0880F991FAA1F0C
:1006C000BB1F0A94D2F76C017C01E094F094612C7A
:1006D0008091B9026816F8F4C62DD0E0E091B50219
:1006E000F091B602EC0FFD1F80810E945602249605
:1006F000CC0FDD1FCD5ADD4F892B41F488819981C4
:100700008C299D29998388836394E2CF888199817C
:100710008E219F21F7CFE091B702F091B802E00F50
:10072000F11F61E080810E9482028091B702909166
:10073000B802080F191F60E0F80180810E94B4021E
:1007400073949CCFC3E5D2E0FE018FEF9FEF278D1E
:1007500030A1232B21F4148E968F858F11A236960B
:1007600022E0EF38F20799F7F12C96E0D92E80912C
:10077000B902F81608F050C0E12C0F2D10E0000F60
:10078000111F055A1D4F2091BA02E21608F042C00F
:10079000F801608171810E2C02C0769567950A94EC
:1007A000E2F7F29E900111242E0D311DE3E5F2E0F7
:1007B00080E0458D568D2417350709F46AC08F5F98
:1007C00036968A30B1F760FF23C0E3E5F2E090E0AF
:1007D00080E0448D411117C0E091B302F091B40262
:1007E000E20FF31F4081D89EF001D99EF00D112435
:1007F000ED5AFD4F448F368F258F10A2178E61E082
:100800000E94B00005C0019636968A30910509F71E
:10081000E394B9CFF394ABCF80E099A19111892FE4
:100820002696F2E0CF38DF07C1F79FB7F8944091E2
:1008300085015091860160918701709188019FBF69
:100840004093AF025093B0026093B1027093B20232
:100850008823D9F0809174028823B9F080917202C4
:1008600090917302019789F480916F02DF91CF918B
:100870001F910F91FF90EF90DF90CF90BF90AF90BE
:100880009F908F907F906F9008951092BF0280E0AC
:10089000EDCF6170B5CF1F93CF93DF93182FEB018E
:1008A00061E00E94B402209739F460E0812FDF916B
:1008B000CF911F910C948202CF3FD10511F461E0DA
:1008C000F5CFE12FF0E0E255FF4FE491E33031F155
:1008D00040F4E130B1F0E230E1F0C038D1057CF70E
:1008E000E4CFE73029F1E83059F1E430B1F78091F5
:1008F0008000806280938000D0938B00C0938A0038
:1009000004C084B5806884BDC7BDDF91CF911F91BD
:10091000089584B5806284BDC8BDF7CF8091800002
:10092000806880938000D0938900C0938800EDCFC9
:100930008091B00080688093B000C093B300E5CF91
:100940008091B00080628093B000C093B400DDCF8E
:100950003FB7F8948091810190918201A091830129
:10096000B091840126B5A89B05C02F3F19F00196D0
:10097000A11DB11D3FBFBA2FA92F982F8827BC01F9
:10098000CD01620F711D811D911D42E0660F771F21
:10099000881F991F4A95D1F708958F929F92AF9221
:1009A000BF92CF92DF92EF92FF920E94A8044B0178
:1009B0005C018FE0C82ED12CE12CF12C0E94A80400
:1009C000681979098A099B09683E73408105910578
:1009D000A8F321E0C21AD108E108F10888EE880ED8
:1009E00083E0981EA11CB11CC114D104E104F104E0
:1009F00029F7FF90EF90DF90CF90BF90AF909F903E
:100A00008F900895089590E080E00895CF92DF924E
:100A1000EF92FF92CF93DF93EC01603282E0780790
:100A2000CCF5653B710514F064EB70E0898128E832
:100A300030E0281B310987FD3395220F331F220F29
:100A4000331F6901330FEE08FF088A8128E532E081
:100A5000281B310987FD3395220F331F220F331FC7
:100A6000032E000C440B550B2C193D094E095F0950
:100A7000DB0177FF02C0B0E0A0E00E940B0C24EB8A
:100A800030E040E050E00E94E10BC20ED31EE41EB5
:100A9000F51EB601E881EC3070F5298188E890E018
:100AA000821B910927FD9395880F991F880F991F25
:100AB000681779077CF02A8188E592E0821B91090A
:100AC00027FD9395880F991F880F991F681779073D
:100AD0000CF4CB010297880F991F4FB7F8942E2F73
:100AE00030E0F901EE0FFF1FE20FF31FE45AFE4F53
:100AF000928381834FBFDF91CF91FF90EF90DF9082
:100B0000CF9008951F93CF93DF93EC01162F888128
:100B10008C3008F04EC061E0812F0E94B4028881C1
:100B2000282F30E0F901EE0FFF1FE20FF31FE45A08
:100B3000FE4F1F736081607C612B608319821A8273
:100B40002CE0622F0E947B0C829FB001112430E0C8
:100B500020E0AB01420F531FFA01EE0FFF1FE40F1D
:100B6000F51FE45AFE4F908196FD16C02F5F3F4F50
:100B70002C30310571F781110FC01092800082E096
:100B8000809381001092850010928400B19A809128
:100B90006F00826080936F00E8818E2F90E0FC01EF
:100BA000EE0FFF1FE80FF91FE45AFE4F80818064AB
:100BB00080838881DF91CF911F910895CF93DF9338
:100BC000EC0160E08E810E94820261E08E810E94D1
:100BD000820260E08E810E9482028BE891E00197A0
:100BE000F1F7DF91CF910895CF92DF92EF92FF92CC
:100BF0000F931F93CF93DF936C017C0187E0E80E86
:100C0000F11CD0E0C0E0062F10E0B8010C2E02C0AD
:100C1000759567950A94E2F76170F70181917F01FC
:100C20000E9482022196C430D10579F7C601DF9176
:100C3000CF911F910F91FF90EF90DF90CF900C9488
:100C4000DE05CF92DF92EF92FF920F931F93CF9327
:100C5000DF93EC01F62E642F8C810E9482028D813D
:100C60008F3F19F060E00E9482020F2D10E08F8507
:100C700084FF25C06E0187E0C80ED11CF12CE12C49
:100C8000B8010E2C02C0759567950A94E2F7617061
:100C9000F60181916F010E948202FFEFEF1AFF0AB5
:100CA00088E0E816F10461F7CE01DF91CF911F9142
:100CB0000F91FF90EF90DF90CF900C94DE05B8017C
:100CC00084E0759567958A95E1F7CE010E94F40559
:100CD0006F2DCE01DF91CF911F910F91FF90EF907B
:100CE000DF90CF900C94F405CF93DF93823029F4FA
:100CF00090914A02986090934A0280934E0210921B
:100D00004F0280E48093500280E18093510280E59D
:100D10008093520261E080913F020E94B402809170
:100D200040028F3F19F061E00E94B40261E08091BF
:100D300041020E94B402CBE3D2E09E012B53324029
:100D400080914A0284FD0BC084E090E02196281730
:100D5000390744F461E08E810E94B402EECF88E04E
:100D600090E0F4CF8BE39DE00197F1F760E0809194
:100D70003F020E94820260E0809141020E94820252
:100D8000809140028F3F19F060E00E9482026091E2
:100D90004A0264FD45C063E08BE392E00E94F405E3
:100DA000CBE4D6E4CE010197F1F763E08BE392E068
:100DB0000E94F4052197F1F763E08BE392E00E9433
:100DC000F40583E592E00197F1F762E08BE392E0AE
:100DD0000E94F40560914A02606240E08BE392E079
:100DE0000E94210684E080934B0240E06CE08BE39C
:100DF00092E00E94210640E061E08BE392E00E94D5
:100E000021068BE39FE10197F1F782E080934C028A
:100E100040E066E08BE392E0DF91CF910C942106F5
:100E2000606240E08BE392E00E9421068BE496E44E
:100E30000197F1F760914A02606240E08BE392E033
:100E40000E94210683E592E00197F1F760914A0242
:100E5000606240E08BE392E00E942106BBCF41E05C
:100E60000E94210681E090E008950F931F93CF9395
:100E7000DF93EC0188819981009759F02A813B81A9
:100E80002617370730F081E0DF91CF911F910F9146
:100E900008958B016F5F7F4F0E94B20D009759F04C
:100EA000998388831B830A832C813D81232B59F7E7
:100EB000FC011082E8CF80E0E7CFCF93DF93EC0115
:100EC000198218821B821A821D821C8270E060E0E7
:100ED0000E9435072881398181110FC02115310504
:100EE00019F0C9010E94290D198218821D821C82E5
:100EF0001B821A82DF91CF9108951D821C8266E5C4
:100F000071E0C901DF91CF910C94810E0F931F9373
:100F1000CF93DF938C01EC0109900020E9F7219732
:100F2000C81BD90BBE018CE292E00E9435072091CC
:100F30002C0230912D02811117C02115310519F0B5
:100F4000C9010E94290D10922D0210922C021092BC
:100F500031021092300210922F0210922E02DF9175
:100F6000CF911F910F910895D0933102C093300219
:100F7000B801C901DF91CF911F910F910C94810E9F
:100F8000CF93DF930E94F402882309F1833609F09E
:100F900074C064EB70E082E392E00E9406058AE48C
:100FA00091E00E9486070E9485088091300290910E
:100FB0003102892B61F06AE471E080912C029091FA
:100FC0002D020E94780E892B41F40E9485088091A1
:100FD000300290913102892B61F060E571E08091DF
:100FE0002C0290912D020E94780E892B11F40E9400
:100FF00071088091300290913102892BD9F06AE416
:1010000071E080912C0290912D020E94780E892B24
:1010100089F40E94F4022091020130910301883387
:10102000A1F52830310534F42F5F3F4F3093030191
:10103000209302018091020190910301813091057A
:1010400061F582E390E09093010180930001C091EB
:101050000001D0910101BE0186E00E944B04BE0157
:1010600085E00E944B04BE0184E00E944B04BE0157
:1010700081E2DF91CF910C944B04803309F095CF3E
:1010800080E591E00E94860790CF823399F6223066
:10109000310584F221503109C9CF8230910519F40C
:1010A00080E590E0D0CF8330910519F483E790E09C
:1010B000CACF8430910519F486E990E0C4CF853019
:1010C000910519F489EB90E0BECF8630910519F4B3
:1010D0008CED90E0B8CF079709F0B9CF8FEF90E093
:1010E000B2CF70E060E088E392E00E94060570E015
:1010F00060E085E392E00E94060570E060E082E334
:1011000092E00E9406050C94C007CF93DF931092E3
:10111000590110925801C0915801D0915901C53B15
:10112000D10504F5BE0188E392E00E940605BE01E8
:1011300085E392E00E9406050E94CD040E94F4021D
:10114000803331F480E591E00E9486070E947108A7
:101150008091580190915901019690935901809383
:101160005801D9CF84EB90E09093590180935801B6
:10117000C0915801D0915901D7FD1CC0BE0188E330
:1011800092E00E940605BE0185E392E00E940605FA
:101190000E94CD040E94F402803331F480E591E096
:1011A0000E9486070E947108809158019091590110
:1011B0000197DACFDF91CF9108951F920F920FB66A
:1011C0000F9211242F933F934F935F936F937F93CD
:1011D0008F939F93AF93BF93EF93FF9389E891E031
:1011E0000E949E01FF91EF91BF91AF919F918F91CE
:1011F0007F916F915F914F913F912F910F900FBE13
:101200000F901F9018951F920F920FB60F921124F6
:101210002F938F939F93EF93FF93E0919901F09118
:101220009A018081E0919F01F091A00182FD1BC095
:1012300090818091A2018F5F8F732091A30182170B
:1012400041F0E091A201F0E0E757FE4F958F8093C7
:10125000A201FF91EF919F918F912F910F900FBE5F
:101260000F901F9018958081F4CF1F920F920FB6A8
:101270000F9211242F933F938F939F93AF93BF931C
:101280008091850190918601A0918701B09188019C
:101290003091800123E0230F2D3758F50196A11DD1
:1012A000B11D209380018093850190938601A093C6
:1012B0008701B09388018091810190918201A09172
:1012C0008301B09184010196A11DB11D809381011C
:1012D00090938201A0938301B0938401BF91AF9159
:1012E0009F918F913F912F910F900FBE0F901F9064
:1012F000189526E8230F0296A11DB11DD2CF1F928B
:101300000F920FB60F9211242F933F934F935F9339
:101310006F937F938F939F93AF93BF93CF93DF93FD
:10132000EF93FF9380915A01C0915B01D0E087FF5A
:1013300024C0109285001092840080915A018F5F22
:1013400080935A0180915A01082E000C990B8C173A
:101350009D0724F480915A018C30C4F1809184005F
:1013600090918500049680349C4908F47AC080915D
:10137000840090918500049676C080915A01082ED1
:10138000000C990B8C179D07C4F6E0915A018E2F23
:10139000EE0F990BFC01EE0FFF1FE80FF91FE45A47
:1013A000FE4F808186FFC9CFE0915A018E2FEE0F4C
:1013B000990BFC01EE0FFF1FE80FF91FE45AFE4FD7
:1013C000808160E08F730E948202B7CF20918400F9
:1013D00030918500E0915A018E2FEE0F990BFC01A0
:1013E000EE0FFF1FE80FF91FE45AFE4F8181928133
:1013F000820F931F9093890080938800E0915A0197
:101400008E2FEE0F990BFC01EE0FFF1FE80FF91F57
:10141000E45AFE4F808186FF11C0E0915A018E2F61
:10142000EE0F990BFC01EE0FFF1FE80FF91FE45AB6
:10143000FE4F808161E08F730E948202FF91EF91E5
:10144000DF91CF91BF91AF919F918F917F916F91DC
:101450005F914F913F912F910F900FBE0F901F9072
:10146000189580E49CE990938900809388008FEF21
:1014700080935A01E3CFFC0190915B019C3098F47A
:1014800081E0890F80935B019083892F90E0FC01BC
:10149000EE0FFF1FE80FF91FE45AFE4F88EB9BE0A9
:1014A0009283818308958FEF8083089510928C0139
:1014B00010928B0188EE93E0A0E0B0E080938D0164
:1014C00090938E01A0938F01B093900186E291E0FA
:1014D00090938A018093890185EC90E09093960126
:1014E0008093950184EC90E090939801809397010C
:1014F00080EC90E090939A018093990181EC90E0C8
:1015000090939C0180939B0182EC90E090939E01CC
:1015100080939D0186EC90E09093A00180939F01C1
:101520001092A2011092A3011092A4011092A501A1
:1015300010925502109259021092580210925A02BB
:1015400084E491E09093540280935302EFE6F2E03A
:101550001082148213821582369682E0EB3AF807E5
:10156000B9F788E091E09093B6028093B50284E0E9
:1015700091E09093B8028093B70284E08093B9021F
:101580008093BA028CE091E09093B4028093B3020E
:101590008AE090E09093BC028093BB0284EF91E0DC
:1015A0009093BE028093BD021092C1021092C002BD
:1015B0001092AF021092B0021092B1021092B202D9
:1015C0001092BF0210923E0210923D0288E391E019
:1015D00090933C0280933B028DE080933F028FEF1B
:1015E000809340028CE0809341028BE08093420222
:1015F0008AE08093430289E08093440288E08093EC
:101600004502109246021092470210924802109230
:10161000490210924A0281E00E94740688E392E037
:101620000E943B0A85E392E00E943B0A82E392E03B
:101630000E943B0A8CE292E00E945D0786E292E003
:101640000C945D07789484B5826084BD84B5816014
:1016500084BD85B5826085BD85B5816085BD80917D
:101660006E00816080936E001092810080918100F5
:1016700082608093810080918100816080938100ED
:10168000809180008160809380008091B1008460AF
:101690008093B1008091B00081608093B000809110
:1016A0007A00846080937A0080917A0082608093CF
:1016B0007A0080917A00816080937A0080917A002C
:1016C000806880937A001092C100E0919901F091B6
:1016D0009A0182E08083E0919501F0919601108259
:1016E000E0919701F09198018FEC80831092A10115
:1016F000E0919D01F0919E0186E08083E0919B0145
:10170000F0919C01808180618083E0919B01F09148
:101710009C01808188608083E0919B01F0919C0115
:10172000808180688083E0919B01F0919C018081A1
:101730008F7D808382E00E9474066EE070E088E313
:1017400092E00E9482056FE070E085E392E00E94E3
:10175000820560E170E082E392E00E94820561E030
:1017600086E00E94B40261E085E00E94B40261E07C
:1017700084E00E94B40261E081E20E94B40261E070
:1017800082E20E94B402C0E0D0E00E94C00720972D
:10179000E1F30E948A018823C1F30E940000F5CF83
:1017A0008091260290912702009711F00E94290D46
:1017B00080912C0290912D02009711F00C94290D2C
:1017C0000895052E97FB1EF400940E94F80B57FD18
:1017D00007D00E944A0C07FC03D04EF40C94F80B7F
:1017E00050954095309521953F4F4F4F5F4F08954D
:1017F00090958095709561957F4F8F4F9F4F08957D
:101800000E946C0CA59F900DB49F900DA49F800D1D
:10181000911D11240895B7FF0C94000C0E94000C38
:10182000821B930B08952F923F924F925F926F927B
:101830007F928F929F92AF92BF92CF92DF92EF9260
:10184000FF920F931F93CF93DF93CDB7DEB7CA1BE1
:10185000DB0B0FB6F894DEBF0FBECDBF09942A880C
:10186000398848885F846E847D848C849B84AA84B4
:10187000B984C884DF80EE80FD800C811B81AA8141
:10188000B981CE0FD11D0FB6F894DEBF0FBECDBF0C
:10189000ED010895A1E21A2EAA1BBB1BFD010DC08C
:1018A000AA1FBB1FEE1FFF1FA217B307E407F50710
:1018B00020F0A21BB30BE40BF50B661F771F881FEC
:1018C000991F1A9469F760957095809590959B0182
:1018D000AC01BD01CF010895A29FB001B39FC0012B
:1018E000A39F700D811D1124911DB29F700D811D4C
:1018F0001124911D0895991B79E004C0991F961732
:1019000008F0961B881F7A95C9F780950895EE0F09
:10191000FF1F0590F491E02D09940F931F93CF932F
:10192000DF938230910510F482E090E0E091C402F0
:10193000F091C50230E020E0B0E0A0E0309799F4EB
:101940002115310509F44AC0281B390B2430310513
:10195000D8F58A819B816115710589F1FB0193831B
:101960008283FE0111C04081518102811381481799
:101970005907E0F04817590799F4109761F012964B
:101980000C93129713961C933296CF01DF91CF914F
:101990001F910F9108950093C4021093C502F4CFD4
:1019A0002115310551F04217530738F0A901DB0129
:1019B0009A01BD01DF01F801C1CFEF01F9CF90938A
:1019C000C5028093C402CDCFFE01E20FF31F8193C5
:1019D00091932250310939832883D7CF2091C202B5
:1019E0003091C302232B41F420911E0130911F013D
:1019F0003093C3022093C20220911C0130911D013B
:101A00002115310541F42DB73EB740912001509189
:101A10002101241B350BE091C202F091C302E217B1
:101A2000F307A0F42E1B3F0B2817390778F0AC0101
:101A30004E5F5F4F2417350748F04E0F5F1F5093DE
:101A4000C3024093C202819391939FCFF0E0E0E004
:101A50009CCFCF93DF930097E9F0FC01329713827C
:101A60001282A091C402B091C502ED0130E020E0E5
:101A70001097A1F420813181820F931F2091C2021F
:101A80003091C3022817390709F061C0F093C302EF
:101A9000E093C202DF91CF910895EA01CE17DF07EC
:101AA000E8F54A815B819E0141155105B1F7E901D5
:101AB000FB83EA8349915991C40FD51FEC17FD07A9
:101AC00061F4808191810296840F951FE9019983C9
:101AD0008883828193819B838A83F0E0E0E0129681
:101AE0008D919C9113970097B9F52D913C91119789
:101AF000CD010296820F931F2091C2023091C30242
:101B00002817390739F6309751F51092C50210920F
:101B1000C402B093C302A093C202BCCFD383C283DA
:101B200040815181840F951FC817D90761F44E5F1A
:101B30005F4F88819981480F591F518340838A8163
:101B40009B81938382832115310509F0B0CFF093F7
:101B5000C502E093C4029ECFFD01DC01C0CF138219
:101B60001282D7CFB0E0A0E0E8EBFDE00C94150CBA
:101B70008C01009751F4CB010E948D0C8C01C8019F
:101B8000CDB7DEB7E0E10C94310CFC01E60FF71F96
:101B90009C0122503109E217F30708F49DC0D901D6
:101BA000CD91DC911197C617D70798F0C530D105B4
:101BB00030F3CE0104978617970708F3C61BD70B9F
:101BC0002297C193D1936D937C93CF010E94290DED
:101BD000D6CF5B01AC1ABD0A4C018C0E9D1EA091A4
:101BE000C402B091C502512C412CF12CE12C10976C
:101BF00031F58091C2029091C3028815990509F0D0
:101C00005CC04616570608F058C080911C019091A0
:101C10001D01009741F48DB79EB74091200150916E
:101C20002101841B950BE817F90708F055C0F093C4
:101C3000C302E093C202F90171836083A0CF8D914A
:101C40009C91119712966C90129713967C90139713
:101C5000A815B90559F56C0142E0C40ED11CCA148F
:101C6000DB0420F1AC014A195B09DA0112961597E1
:101C700080F06282738251834083D9016D937C939B
:101C8000E114F10471F0D7011396FC93EE931297CF
:101C900076CF22968C0F9D1FF90191838083F301EB
:101CA000EFCFF093C502E093C40269CF48165906FE
:101CB00008F42C017D01D3019ACFCB010E948D0C39
:101CC0007C01009749F0AE01B8010E946F0EC80177
:101CD0000E94290D870153CF10E000E050CFFB0197
:101CE000DC0102C001900D9241505040D8F7089598
:101CF000FB01DC018D91019080190110D9F3990B42
:101D00000895FB01DC0101900D920020E1F7089598
:101D100010E0C2E6D0E004C0FE010E94870C2196CC
:101D2000C336D107C9F7F894FFCF320001001A1B60
:101D30001C1D161718193738392F343536783132BB
:101D4000332D63303D2B0000C602800000000000F0
:101D5000C00120014D010D027E015C0170010000F7
:101D600000002F0720010305020500000000F0021B
:101D7000B0027F02646F6772750079616E6C69737F
:021D8000000061
:107E0000112484B714BE81FFF0D085E080938100F7
:107E100082E08093C00088E18093C10086E0809377
:107E2000C20080E18093C4008EE0C9D0259A86E02C
:107E300020E33CEF91E0309385002093840096BBD3
:107E4000B09BFECF1D9AA8958150A9F7CC24DD24C4
:107E500088248394B5E0AB2EA1E19A2EF3E0BF2EE7
:107E6000A2D0813461F49FD0082FAFD0023811F036
:107E7000013811F484E001C083E08DD089C08234E0
:107E800011F484E103C0853419F485E0A6D080C0E4
:107E9000853579F488D0E82EFF2485D0082F10E0AE
:107EA000102F00270E291F29000F111F8ED06801E7
:107EB0006FC0863521F484E090D080E0DECF843638
:107EC00009F040C070D06FD0082F6DD080E0C81688
:107ED00080E7D80618F4F601B7BEE895C0E0D1E017
:107EE00062D089930C17E1F7F0E0CF16F0E7DF06D8
:107EF00018F0F601B7BEE89568D007B600FCFDCFD4
:107F0000A601A0E0B1E02C9130E011968C91119780
:107F100090E0982F8827822B932B1296FA010C0160
:107F200087BEE89511244E5F5F4FF1E0A038BF0790
:107F300051F7F601A7BEE89507B600FCFDCF97BE46
:107F4000E89526C08437B1F42ED02DD0F82E2BD052
:107F50003CD0F601EF2C8F010F5F1F4F84911BD097
:107F6000EA94F801C1F70894C11CD11CFA94CF0C13
:107F7000D11C0EC0853739F428D08EE10CD085E9AC
:107F80000AD08FE07ACF813511F488E018D01DD067
:107F900080E101D065CF982F8091C00085FFFCCF94
:107FA0009093C60008958091C00087FFFCCF809118
:107FB000C00084FD01C0A8958091C6000895E0E648
:107FC000F0E098E1908380830895EDDF803219F02E
:107FD00088E0F5DFFFCF84E1DECF1F93182FE3DFCA
:107FE0001150E9F7F2DF1F91089580E0E8DFEE27F6
:047FF000FF270994CA
:027FFE00040479
:00000001FF
