:100000000C9467010C9498010C9498010C9498013D
:100010000C9498010C9498010C9498010C949801FC
:100020000C9498010C9498010C9498010C949801EC
:100030000C9498010C94F5110C9498010C9498016F
:100040000C9498010C9489130C9498010C949801C9
:100050000C9498010C9498010C9498010C94B5128E
:100060000C9498010C947F120C9455120C949801E6
:100070000C9498010C9498010C9498010C9498019C
:100080000C945B130C9498010C9498010C949801B7
:100090000C9498010C9498010C9498010C9498017C
:1000A0000C9498010C9498010C942D130C949801C5
:1000B0000C9498010C9498010C9498010C94FF12E4
:1000C0000C9498010C9498010C9498010C9498014C
:1000D0000C9498010C9498010C9498010C9498013C
:1000E0000C9498010C94B4030C9495030C949B030A
:1000F0000C94DA030C94A7030C94AA030C94D60373
:100100000C9407040C9443020C9446070C94BA0315
:100110000C9495060C9438040C94C2030C94470775
:100120000C94D0030C94C2060C94B0030C9470028F
:100130000C945D060C94D5030C9471060C94CC06BB
:100140000C949F030C947F020C94A9060C949302C8
:100150000C9467060C9483060C94A3030C94C803B8
:100160000C948B060C94CC030C947B060C94E00648
:100170000C9450060C94EA060C9426030C94BD04CF
:100180000C9458060C949F060C94A1020C945C0AE3
:100190000C94D9020C94D6060C94B8060C947115E4
:1001A0000C94D2130C94BE030000210024002700FD
:1001B0002A002D0030003300010100000401070176
:1001C0000A0100002200250028002B002E0031002B
:1001D000340002010000050108010B0100002000AD
:1001E0002300260029002C002F003200000100000F
:1001F00003010601090105050505070508080808AA
:10020000020202020A0A08080404040401010101AE
:1002100001010101030303030303030304070707A9
:100220000C0C0C0C0C0C0C0C02020202060606064E
:10023000060606060B0B0B0B0B0B0B0B010210201B
:10024000200808102040102040800201020108040C
:1002500002010102040810204080804020100804A0
:1002600002018004020180402010080402010804F9
:10027000020101020408102040800102040810203D
:10028000408000000A0B02090C0D0E080703040150
:10029000000000000000000000000000000000005E
:1002A000000000000000000000000000000012112B
:1002B000100000000000000000000000000000002E
:1002C00000000000000000000200D213711511248C
:1002D0001FBECFEFD1E2DEBFCDBF00E00CBF13E009
:1002E000A0E0B2E0ECECF4E300E00BBF02C007904A
:1002F0000D92A631B107D9F725E0A6E1B3E001C020
:100300001D92A931B207E1F711E0C6E6D1E000E0A5
:1003100006C021970109802FFE010E942D18C536C5
:10032000D10780E00807A9F70E949E140C94541A84
:100330000C94000096E0899FD0011124AA55BB4F70
:1003400090967C936E935F9791E091969C93919792
:10035000E0911305F091140590911205992339F05D
:10036000309751F0811108C08091C20419943097E0
:1003700019F05C968C91FACF0895CF92DF92EF92AC
:10038000FF920F931F9396E0899FF0011124EA5585
:10039000FB4F11A2278D30A12130310551F178F0AA
:1003A0002230310509F451C02330310509F452C01F
:1003B0001F910F91FF90EF90DF90CF9008956623EB
:1003C000B9F361E070E00E949A012FB7F894809130
:1003D000D8039091D903A091DA03B091DB032FBF2A
:1003E0008093FE049093FF04A0930005B093010551
:1003F000DFCF9FB7F894C090D803D090D903E09096
:10040000DA03F090DB039FBF0091FE041091FF041C
:100410002091000530910105C01AD10AE20AF30AC1
:10042000009110051091110530E020E00C151D051C
:100430002E053F0550F462E070E01F910F91FF9090
:10044000EF90DF90CF900C949A016111B1CF63E0EF
:1004500070E0F3CF70E060E0F0CF80917B00877FA9
:1004600080937B0080E480937C0080917A0080649C
:1004700080937A0080917A0086FDFCCF809178008D
:10048000909179000895AF92BF92CF92DF92EF9250
:10049000FF920F931F93CF93DF936C017B018B012E
:1004A000040F151FEB015E01AE18BF08C017D1077E
:1004B00059F06991D601ED91FC910190F081E02D08
:1004C000C6011995892B79F7C501DF91CF911F914D
:1004D0000F91FF90EF90DF90CF90BF90AF90089575
:1004E000FC01538D448D252F30E0842F90E0821B3A
:1004F000930B541710F0CF96089501970895FC01BF
:10050000918D828D981761F0A28DAE0FBF2FB11D16
:100510005D968C91928D9F5F9F73928F90E008956E
:100520008FEF9FEF0895FC01918D828D981731F028
:10053000828DE80FF11D858D90E008958FEF9FEF7C
:100540000895FC01918D228D892F90E0805C9F4F52
:10055000821B91098F73992708958CED93E00E9477
:10056000A10221E0892B09F420E0822F0895FC01EB
:10057000A48DA80FB92FB11DA35ABF4F2C91848D04
:1005800090E001968F739927848FA689B7892C9361
:10059000A089B1898C91837080648C93938D848DB4
:1005A000981306C00288F389E02D80818F7D8083B7
:1005B0000895EF92FF920F931F93CF93DF93EC0177
:1005C00081E0888F9B8D8C8D98131AC0E889F989FA
:1005D000808185FF15C09FB7F894EE89FF896083FD
:1005E000E889F98980818370806480839FBF81E07E
:1005F00090E0DF91CF911F910F91FF90EF900895C0
:10060000F62E0B8D10E00F5F1F4F0F731127E02E9A
:100610008C8D8E110CC00FB607FCFACFE889F989D2
:10062000808185FFF5CFCE010E94B702F1CFEB8D1F
:10063000EC0FFD2FF11DE35AFF4FF0829FB7F894A6
:100640000B8FEA89FB8980818062CFCFCF93DF93C4
:10065000EC01888D8823B9F0AA89BB89E889F989DA
:100660008C9185FD03C0808186FD0DC00FB607FC0F
:10067000F7CF8C9185FFF2CF808185FFEDCFCE0142
:100680000E94B702E9CFDF91CF91089580E090E01A
:10069000892B29F00E94AD0281110E94000080E0A8
:1006A00090E0892B49F080E090E0892B29F00E94AE
:1006B000000081110E94000080E090E0892B49F049
:1006C00080E090E0892B29F00E94000081110E94B7
:1006D000000080E090E0892B49F080E090E0892BD9
:1006E00029F00E94000081110C94000008958150AF
:1006F000823108F05AC0E82FF0E08827ED57FC4F10
:100700008F4F0C942D18A303A70395039B039F03FE
:10071000D503AA03B003B403BA03BE03C203C803DC
:10072000CC03D503D003D603DA03809180008F7702
:10073000809380000895809180008F7DF9CF809113
:100740008000877FF5CF84B58F7784BD089584B509
:100750008F7DFBCF8091B0008F778093B00008959C
:100760008091B0008F7DF9CF809190008F7780933A
:1007700090000895809190008F7DF9CF8091900036
:10078000877FF5CF8091A0008F778093A000089598
:100790008091A0008F7DF9CF8091A000877FF5CF59
:1007A000809120018F77809320010895809120010E
:1007B0008F7DF9CF80912001877FF5CFCF93DF9395
:1007C000282F30E0F901EE57FD4F8491F901E45CE8
:1007D000FD4FD491F901EA50FE4FC491CC23A1F012
:1007E00081110E947703EC2FF0E0EE0FFF1FE4521F
:1007F000FE4FA591B491EC91ED2381E090E009F4D6
:1008000080E0DF91CF91089580E090E0FACF862FCD
:100810000C94DE031F93CF93DF93282F30E0F90170
:10082000EE57FD4F8491F901E45CFD4FD491F9013D
:10083000EA50FE4FC491CC23A9F0162F81110E94DB
:100840007703EC2FF0E0EE0FFF1FEE53FE4FA59164
:10085000B4918FB7F894EC91111108C0D095DE23B4
:10086000DC938FBFDF91CF911F910895DE2BF8CFDE
:10087000862F642F0C940A049091020289130DC0F4
:10088000E8ECF2E0E4919FEF90930202E230E1F0B5
:1008900038F4EE2381F0E13089F060E00C940A0432
:1008A000E43049F110F1E530C1F7909173009D7F7C
:1008B00090937300F2CF10926E00EFCF90916F0083
:1008C0009D7F90936F00E9CF909170009D7F9093F2
:1008D000700091E09093B0009091B100987F946087
:1008E0009093B1001092B300D8CF909171009D7F8A
:1008F00090937100D2CF909172009D7F909372007F
:10090000CCCFCF93DF9390E0FC01E45CFD4F2491CA
:100910008A509E4FFC0184918823C9F090E0880F93
:10092000991FFC01E855FE4FA591B491FC01EE53CF
:10093000FE4FC591D49161110DC09FB7F8948C9171
:10094000209582238C938881282328839FBFDF9161
:10095000CF910895623051F49FB7F8943C91822F63
:10096000809583238C93E8812E2BEFCF8FB7F8945B
:10097000EC912E2B2C938FBFEACF862F642F0C94F3
:1009800081046F927F928F929F92AF92BF92CF928B
:10099000DF92EF92FF920F931F93CF93DF9381E04B
:1009A000809312058FB7F8944091D8035091D903E2
:1009B0006091DA037091DB038FBF80910205909103
:1009C0000305A0910405B0910505481B590B6A0B5E
:1009D0007B0B80910E0590910F05B0E0A0E084178D
:1009E0009507A607B70708F01DC1C0E080910C0568
:1009F000C81760F4E0910805F0910905EC0FF11DAE
:100A000062E080810E948104CF5FF0CF712C812C45
:100A1000912C5401839480910D05781608F05FC0E5
:100A2000072D10E0E0910A05F0910B05E00FF11F92
:100A300061E080810E948104E0910A05F0910B053C
:100A4000E00FF11F60E080810E940A04D501C4011B
:100A5000072C04C0880F991FAA1FBB1F0A94D2F746
:100A60006C017C01E094F094612C80910C05681677
:100A7000F8F4C62DD0E0E0910805F0910905EC0FDF
:100A8000FD1F80810E94DE032496CC0FDD1FCA5516
:100A9000DB4F892B41F4888199818C299D29998389
:100AA00088836394E2CF888199818E219F21F7CF3B
:100AB000E0910A05F0910B05E00FF11F61E08081E4
:100AC0000E940A0480910A0590910B05080F191FD6
:100AD00060E0F80180810E94810473949CCFC6EA93
:100AE000D4E0FE018FEF9FEF278D30A1232B21F45F
:100AF000148E968F858F11A2369624E0E23EF2077F
:100B000099F7F12C96E0D92E80910C05F81608F093
:100B100050C0E12C0F2D10E0000F111F02551B4F8C
:100B200020910D05E21608F042C0F8016081718144
:100B30000E2C02C0769567950A94E2F7F29E90011A
:100B400011242E0D311DE6EAF4E080E0458D568D2E
:100B50002417350709F46AC08F5F36968A30B1F7DB
:100B600060FF23C0E6EAF4E090E080E0448D4111AC
:100B700017C0E0910605F0910705E20FF31F4081D1
:100B8000D89EF001D99EF00D1124EA55FB4F448FF9
:100B9000368F258F10A2178E61E00E94BD0105C01F
:100BA000019636968A30910509F7E394B9CFF3940C
:100BB000ABCF80E099A19111892F2696F4E0C23E37
:100BC000DF07C1F79FB7F8944091D8035091D9033C
:100BD0006091DA037091DB039FBF4093020550934D
:100BE000030560930405709305058823D9F080916F
:100BF000C7048823B9F08091C5049091C604019779
:100C000089F48091C204DF91CF911F910F91FF90E1
:100C1000EF90DF90CF90BF90AF909F908F907F909C
:100C20006F9008951092120580E0EDCF6170B5CFFE
:100C30001F93CF93DF93182FEB0161E00E94810493
:100C4000209739F460E0812FDF91CF911F910C94B0
:100C50000A04CF3FD10511F461E0F5CFE12FF0E0B8
:100C6000EE57FD4FE491E150E23108F0B3C0F0E0FF
:100C70008827E25CF94F8F4F0C942D1850065806C8
:100C80005D0667067106EA067B0683068B069506F7
:100C90009F06A906B806C206EA06CC06D606E006F6
:100CA00084B5806884BDC7BDDF91CF911F91089541
:100CB00084B5806284BDC8BDF7CF80918000806814
:100CC00080938000D0938900C0938800EDCF8091FD
:100CD0008000806280938000D0938B00C0938A0054
:100CE000E3CF80918000886080938000D0938D0056
:100CF000C0938C00D9CF8091B00080688093B00001
:100D0000C093B300D1CF8091B00080628093B000D7
:100D1000C093B400C9CF8091900080688093900008
:100D2000D0939900C0939800BFCF809190008062CB
:100D300080939000D0939B00C0939A00B5CF809190
:100D40009000886080939000D0939D00C0939C0099
:100D5000ABCF8091A00080688093A0008091A0001C
:100D60008F7B8093A000D093A900C093A8009CCF54
:100D70008091A00080628093A000D093AB00C093CC
:100D8000AA0092CF8091A00088608093A000D093A9
:100D9000AD00C093AC0088CF809120018068809323
:100DA0002001D0932901C09328017ECF809120019A
:100DB000806280932001D0932B01C0932A0174CFCD
:100DC00080912001886080932001D0932D01C093F1
:100DD0002C016ACFC038D1050CF03ECF33CF3FB7DE
:100DE000F8948091CD039091CE03A091CF03B09160
:100DF000D00326B5A89B05C02F3F19F00196A11D71
:100E0000B11D3FBFBA2FA92F982F8827BC01CD0154
:100E1000620F711D811D911D42E0660F771F881FB3
:100E2000991F4A95D1F708958F929F92AF92BF92E2
:100E3000CF92DF92EF92FF924B015C010E94EF068E
:100E40006B017C010E94EF066C197D098E099F09D8
:100E5000683E734081059105A8F321E0821A91084C
:100E6000A108B10888EEC80E83E0D81EE11CF11C71
:100E700081149104A104B10429F7FF90EF90DF9051
:100E8000CF90BF90AF909F908F900895089590E07D
:100E900080E00895CF92DF92EF92FF92CF93DF939D
:100EA000EC01603282E07807CCF5653B710514F007
:100EB00064EB70E0898128E830E0281B310987FD68
:100EC0003395220F331F220F331F6901330FEE08B2
:100ED000FF088A8128E532E0281B310987FD339518
:100EE000220F331F220F331F032E000C440B550B10
:100EF0002C193D094E095F09DB0177FF02C0B0E004
:100F0000A0E00E94D01624EB30E040E050E00E94C8
:100F1000A616C20ED31EE41EF51EB601E881E0330C
:100F200070F5298188E890E0821B910927FD93954F
:100F3000880F991F880F991F681779077CF02A81FD
:100F400088E592E0821B910927FD9395880F991FF0
:100F5000880F991F681779070CF4CB010297880F47
:100F6000991F4FB7F8942E2F30E0F901EE0FFF1FB5
:100F7000E20FF31FE45CFC4F928381834FBFDF914C
:100F8000CF91FF90EF90DF90CF9008951F93CF9374
:100F9000DF93EC01162F8881803308F04EC061E0AA
:100FA000812F0E9481048881282F30E0F901EE0F03
:100FB000FF1FE20FF31FE45CFC4F1F736081607C36
:100FC000612B608319821A822CE0622F0E94211803
:100FD000829FB001112430E020E0AB01420F531F8B
:100FE000FA01EE0FFF1FE40FF51FE45CFC4F908148
:100FF00096FD16C02F5F3F4F2C30310571F78130C1
:1010000009F51092800082E08093810010928500A3
:1010100010928400B19A80916F00826080936F007B
:10102000E8818E2F90E0FC01EE0FFF1FE80FF91F03
:10103000E45CFC4F8081806480838881DF91CF9164
:101040001F910895823061F4109290008093910076
:10105000109295001092940088BB80937100E0CFAD
:10106000833069F41092A00082E08093A100109276
:10107000A5001092A40089BB80937200D1CF81118A
:10108000CFCF1092200182E08093210110922501A0
:10109000109224018ABB80937300C2CFAF92BF929B
:1010A000CF92DF92EF92FF920F931F93CF93DF9334
:1010B0006B017A01EC01C95CDC4F28813CE0389F70
:1010C0008001399F100D1124A0903B03B12C27FF04
:1010D0001FC0FB011182108288818F5F8883888105
:1010E0009801280F311D87FD3A95F6012A153B0519
:1010F0001CF488818C30C4F1808191810496803405
:101100009C4908F473C0F60180819181049670C0F7
:1011100088819801280F311D87FD3A952A153B05D6
:10112000DCF68881A801480F511D87FD5A95FA0108
:10113000EE0FFF1FE40FF51FE45CFC4F808186FF7C
:10114000CBCF8881F801E80FF11D87FDFA95CF011B
:10115000EE0FFF1FE80FF91FE45CFC4F808160E099
:101160008F730E940A04B8CF808191812881A801E1
:10117000420F511D27FD5A959A01FA01EE0FFF1FEC
:10118000E20FF31FE45CFC4F21813281820F931F39
:10119000F7019183808388819801280F311D87FD95
:1011A0003A95F901EE0FFF1FE20FF31FE45CFC4FCD
:1011B000808186FF22C08881080F111D87FD1A9546
:1011C000F801EE0FFF1FE00FF11FE45CFC4F808180
:1011D00061E08F73DF91CF911F910F91FF90EF909E
:1011E000DF90CF90BF90AF900C940A0480E49CE90C
:1011F000F701918380838FEF8883DF91CF911F91D7
:101200000F91FF90EF90DF90CF90BF90AF90089537
:10121000CF93DF93EC0160E08E810E940A0461E0CD
:101220008E810E940A0460E08E810E940A048BE88D
:1012300091E00197F1F7DF91CF910895CF92DF927E
:10124000EF92FF920F931F93CF93DF936C017C017A
:1012500087E0E80EF11CD0E0C0E0062F10E0B801F6
:101260000C2E02C0759567950A94E2F76170F7013C
:1012700081917F010E940A042196C430D10579F73B
:10128000C601DF91CF911F910F91FF90EF90DF90FA
:10129000CF900C940809CF92DF92EF92FF920F93B8
:1012A0001F93CF93DF93EC01F62E642F8C810E9465
:1012B0000A048D818F3F19F060E00E940A040F2D0F
:1012C00010E08F8584FF25C06E0187E0C80ED11C19
:1012D000F12CE12CB8010E2C02C0759567950A948B
:1012E000E2F76170F60181916F010E940A04FFEF3D
:1012F000EF1AFF0A88E0E816F10461F7CE01DF91EA
:10130000CF911F910F91FF90EF90DF90CF900C94B1
:101310000809B80184E0759567958A95E1F7CE01D3
:101320000E941E096F2DCE01DF91CF911F910F9169
:10133000FF90EF90DF90CF900C941E0940E0682F53
:101340008EE894E00C944B0981E00E949E098BE3A7
:101350009FE10197F1F70895CF93DF93823029F44D
:1013600090919D04986090939D048093A1041092A5
:10137000A20480E48093A30480E18093A40480E528
:101380008093A50461E0809192040E948104809181
:1013900093048F3F19F061E00E94810461E0809125
:1013A00094040E948104CEE8D4E09E012E5834407B
:1013B00080919D0484FD0BC084E090E02196281765
:1013C000390744F461E08E810E948104EECF88E009
:1013D00090E0F4CF8BE39DE00197F1F760E080911E
:1013E00092040E940A0460E0809194040E940A041E
:1013F000809193048F3F19F060E00E940A0480916D
:101400009D0484FD34C063E08EE894E00E941E09D0
:10141000CBE4D6E4CE010197F1F763E08EE894E0E7
:101420000E941E092197F1F763E08EE894E00E9484
:101430001E0983E592E00197F1F762E08EE894E0FF
:101440000E941E0980919D0480620E949E0984E092
:1014500080939E048CE00E949E090E94A40982E071
:1014600080939F0486E0DF91CF910C949E09806267
:101470000E949E098BE496E40197F1F780919D0408
:1014800080620E949E0983E592E00197F1F78091C6
:101490009D0480620E949E09D5CF9091A104691796
:1014A00010F06FEF690FE62FF0E0E257FB4F9489E1
:1014B000890F80680C949E0941E00E944B0981E0ED
:1014C00090E00895FC0101900020E9F73197AF0109
:1014D000481B590BBC018EE894E00C9443028F9298
:1014E0009F92AF92BF920F931F93CF93DF93CDB78D
:1014F000DEB7A1970FB6F894DEBF0FBECDBF19A21D
:10150000423008F44AE08E010F5D1F4F842E912C6B
:10151000B12CA12CA50194010E94D816E62FB90187
:10152000CA01EA30F4F4E05DD801EE938D01232B7B
:10153000242B252B79F790E080E0109719F0CD014E
:101540000E94620AA1960FB6F894DEBF0FBECDBF0F
:10155000DF91CF911F910F91BF90AF909F908F908F
:101560000895E95CE1CF4F925F926F927F928F92E4
:101570009F92AF92BF92CF92DF92EF92FF920F9322
:101580001F93CF936B017C01742EAC019B010E94D1
:101590001C18882399F089E492E0CF911F910F9154
:1015A000FF90EF90DF90CF90BF90AF909F908F9083
:1015B0007F906F905F904F900C94620A46015701A4
:1015C000E894B7F82FEF3FEF4FE75FE7C501B401AD
:1015D0000E941C1881110DC02FEF3FEF4FE75FE70E
:1015E000C501B4010E94821518161CF48DE492E026
:1015F000D4CF2FEF3FEF4FE75FE4C701B6010E9462
:10160000171818161CF481E592E0C7CF2FEF3FEFB3
:101610004FE75FECC701B6010E94821587FDF3CF4B
:1016200020E030E0A901C701B6010E94821510E058
:1016300000E087FF0CC041E06DE28EE894E00E947C
:101640004B09F7FAF094F7F8F09401E010E0C0E0ED
:1016500060E070E080E09FE37C1641F020E030E045
:1016600040E251E40E947617CF5FF6CFA7019601C2
:101670000E940A174B015C010E94E8172B013C01F4
:101680004AE00E946F0A080F191FCC23C9F1C30159
:10169000B2010E9487159B01AC01C501B4010E94F3
:1016A00009174B015C0141E06EE28EE894E00E9474
:1016B0004B090F5F1F4FC15018F120E030E040E2AE
:1016C00051E4C501B4010E94E8152B013C010E94C0
:1016D000E8174B01B12CA12C4AE0C501B4010E94CE
:1016E0006F0A080F191FC501B4010E9487159B01DD
:1016F000AC01C301B2010E9409174B015C01DBCFB1
:10170000C801CF911F910F91FF90EF90DF90CF9084
:10171000BF90AF909F908F907F906F905F904F9011
:1017200008950C94620A2091830430918404232B41
:1017300039F421E0FC018081882361F020E00AC0B7
:10174000BC0180917F04909180040E94441A21E0A2
:10175000892BA1F7822F08950F931F93CF93DF93C7
:10176000EC0188819981009759F02A813B812617E5
:10177000370730F081E0DF91CF911F910F910895ED
:101780008B016F5F7F4F0E945A19009759F0998320
:1017900088831B830A832C813D81232B59F7FC010D
:1017A0001082E8CF80E0E7CFCF93DF93EC0119827E
:1017B00018821B821A821D821C8270E060E00E94E7
:1017C000AC0B2881398181110FC02115310519F029
:1017D000C9010E94D118198218821D821C821B82A5
:1017E0001A82DF91CF9108951D821C8266E772E014
:1017F000C901DF91CF910C944D1A0F931F93CF9392
:10180000DF938C01EC0109900020E9F72197C81BB8
:10181000D90BBE018FE794E00E94AC0B20917F04AE
:1018200030918004811117C02115310519F0C901CB
:101830000E94D1181092800410927F0410928404A8
:10184000109283041092820410928104DF91CF9150
:101850001F910F910895D0938404C0938304B8011D
:10186000C901DF91CF911F910F910C944D1A4F92A6
:101870005F926F927F928F929F92AF92BF92CF9220
:10188000DF92EF92FF920F931F93CF93DF930E940B
:10189000C104882309F456C5833609F04DC58091EB
:1018A00002028F3109F4C2C08F3F09F4E8C064E13D
:1018B00070E080E090E00E9414078FE10E943C04F9
:1018C00064EB70E085E894E00E944A0785E592E0C9
:1018D0000E94FD0B8BE592E00E94910B68EE73E095
:1018E00080E090E00E9414070E94A40961E080E07B
:1018F0000E944D0A88E692E00E94910B82E3482EF6
:10190000512C66246A94712C2CED822E912C09EBBB
:1019100010E036E9E32EF12C43E7C42ED12C50E53C
:10192000A52EB12C1092360310923503C0913503C9
:10193000D0913603C53BD1050CF080C30E942D0227
:10194000BC01990F880B990B0E94891520E030EC9F
:101950004FE754E40E94761720E030E44CE955E468
:101960000E94E81520E030E040E251E40E94761742
:101970006093310370933203809333039093340365
:10198000BE018BE894E00E944A07BE0188E894E01B
:101990000E944A076FE070E080E090E00E94140728
:1019A0000E94C104803309F0E7C187E792E00E94FA
:1019B000FD0B0E94CD1180910002909101028130B7
:1019C000910509F00BC35092300340922F03C09150
:1019D0002F03D0913003BE0187E00E94180670E00B
:1019E00060E086E00E941806BE0184E00E941806AE
:1019F00070E060E083E00E94180661E08EE00E94E3
:101A00004D0A6091310370913203809133039091BC
:101A1000340342E00E94B30A80913503909136036B
:101A20000196909336038093350380CFE8ECF2E083
:101A3000C491C7FD3CCF61E08FE10E948104CC23BB
:101A400009F4F2C0C23009F006C18091B100887F6C
:101A500082608093B10089EF8093B3008FEF9FEF96
:101A6000DC018093D4039093D503A093D603B09365
:101A7000D7038091700082608093700018CF8FE14F
:101A800080930202E8ECF2E0C4918C2FCF3F09F47E
:101A90000ECFC23009F469C060F4CC2381F1C130AB
:101AA00009F445C087FD03CF61E08FE10E94810406
:101AB000C9CFC43009F49AC008F479C0C53091F791
:101AC0001092200110922101809121018860809361
:101AD000210180912101816080932101E5E1F2E003
:101AE000E491F0E0EE0FFF1FEE53FE4F85919491CD
:101AF000EBE5F2E0E491E0931603C5E09CCF14BC63
:101B000015BC84B5826084BD85B5816085BDE5E185
:101B1000F2E0E491F0E0EE0FFF1FEE53FE4F8591EF
:101B20009491EBE5F2E0E491E0931A0384CF1092F4
:101B300080001092810080918100886080938100F4
:101B400080918100816080938100E5E1F2E0E49181
:101B5000F0E0EE0FFF1FEE53FE4F85919491EBE501
:101B6000F2E0E491E093190366CF1092B000109276
:101B7000B1008091B00082608093B0008091B1008C
:101B800081608093B100E5E1F2E0E491F0E0EE0FD6
:101B9000FF1FEE53FE4F859194919093D203809353
:101BA000D103EBE5F2E0E491E093D30344CF10924C
:101BB0009000109291008091910088608093910034
:101BC00080919100816080939100E5E1F2E0E491E1
:101BD000F0E0EE0FFF1FEE53FE4F85919491EBE581
:101BE000F2E0E491E0931803C3E025CF1092A00047
:101BF0001092A1008091A10088608093A100809143
:101C0000A10081608093A100E5E1F2E0E491F0E0C1
:101C1000EE0FFF1FEE53FE4F85919491EBE5F2E03E
:101C2000E491E093170307CF85B5887F826085BD77
:101C300089EF87BD8FEF9FEFDC0180932B0390939B
:101C40002C03A0932D03B0932E0380916E0082602D
:101C500080936E002CCEC130E9F480918100887FA2
:101C60008160809381008FEC97E09093890080934E
:101C700088008FEF9FEFDC01809327039093280368
:101C8000A0932903B0932A0380916F008260809310
:101C90006F000DCEC330E9F480919100887F8160A0
:101CA000809391008FEC97E0909399008093980037
:101CB0008FEF9FEFDC018093230390932403A09385
:101CC0002503B09326038091710082608093710098
:101CD000EECDC430E9F48091A100887F81608093CB
:101CE000A1008FEC97E09093A9008093A8008FEF5C
:101CF0009FEFDC0180931F0390932003A0932103A7
:101D0000B093220380917200826080937200CFCDE5
:101D1000C530E9F480912101887F816080932101A1
:101D20008FEC97E090932901809328018FEF9FEF2C
:101D3000DC0180931B0390931C03A0931D03B093BD
:101D40001E0380917300826080937300B0CDC23017
:101D500089F034F4CC2361F0C13009F484CFA7CDED
:101D6000C43009F4BECF0CF49DCFC530C9F29FCD6D
:101D70008FEC5FCF8FEC70CEC0910002D09101024A
:101D8000883309F0B9C0C830D1050CF014CE85E510
:101D900092E00E94930B882329F02196D0930102B0
:101DA000C09300028091000290910102019791F48A
:101DB0000E94A40960E080E00E944D0A8EE792E054
:101DC0000E94910B61E080E00E944D0A88E692E05B
:101DD0000E94910B8091000290910102029791F470
:101DE0000E94A40960E080E00E944D0A8FE892E022
:101DF0000E94910B61E080E00E944D0A88E692E02B
:101E00000E94910B8091000290910102039791F43E
:101E10000E94A40960E080E00E944D0A80EA92E0FE
:101E20000E94910B61E080E00E944D0A88E692E0FA
:101E30000E94910B8091000290910102049791F40D
:101E40000E94A40960E080E00E944D0A81EB92E0CC
:101E50000E94910B61E080E00E944D0A82EC92E0CA
:101E60000E94910B8091000290910102059791F4DC
:101E70000E94A40960E080E00E944D0A81ED92E09A
:101E80000E94910B61E080E00E944D0A88E692E09A
:101E90000E94910B8091000290910102069791F4AB
:101EA0000E94A40960E080E00E944D0A82EE92E068
:101EB0000E94910B61E080E00E944D0A88E692E06A
:101EC0000E94910B8091000290910102079709F006
:101ED00072CD0E94A40960E080E00E944D0A83EF69
:101EE00092E00E94910B61E080E00E944D0A88E63A
:101EF00092E00E94910B5FCD823309F05CCDC2303D
:101F0000D1050CF458CD85E592E00E94930B88230F
:101F100029F02197D0930102C09300028091000222
:101F200090910102019791F40E94A40960E080E081
:101F30000E944D0A8EE792E00E94910B61E080E0E2
:101F40000E944D0A88E692E00E94910B8091000267
:101F500090910102029791F40E94A40960E080E050
:101F60000E944D0A8FE892E00E94910B61E080E0B0
:101F70000E944D0A88E692E00E94910B8091000237
:101F800090910102039791F40E94A40960E080E01F
:101F90000E944D0A80EA92E00E94910B61E080E08D
:101FA0000E944D0A88E692E00E94910B8091000207
:101FB00090910102049709F055CF0E94A40960E0B6
:101FC00080E00E944D0A84E093E00E94910B61E062
:101FD00080E00E944D0A88E692E042CF823091056F
:101FE00029F4B0923003A0922F03F1CC83309105F5
:101FF00029F4D0923003C0922F03E9CC84309105AC
:1020000029F4F0923003E0922F03E1CC8530910562
:1020100029F41093300300932F03D9CC8630910517
:1020200029F49092300380922F03D1CC079709F0C6
:10203000CECC7092300360922F03C9CC84EB90E039
:102040009093360380933503C0913503D0913603C6
:10205000D7FD68CC0E942D02BC01990F880B990B0B
:102060000E94891520E030EC4FE754E40E94761777
:1020700020E030E44CE955E40E94E81520E030E02F
:1020800040E251E40E94761760933103709332036B
:102090008093330390933403BE018BE894E00E9455
:1020A0004A07BE0188E894E00E944A076FE070E0AA
:1020B00080E090E00E9414070E94C1048033E9F59B
:1020C00087E792E00E94FD0B0E94CD1180910002F3
:1020D000909101028130910509F0FEC050923003C9
:1020E00040922F03C0912F03D0913003BE0187E0AF
:1020F0000E94180670E060E086E00E941806BE01AB
:1021000084E00E94180670E060E083E00E941806F8
:1021100061E08EE00E944D0A6091310370913203BC
:10212000809133039091340342E00E94B30A80917E
:10213000350390913603019783CFC0910002D0916F
:102140000102883309F0B9C0C830D1050CF0BECF08
:1021500085E592E00E94930B882329F02196D09385
:102160000102C09300028091000290910102019748
:1021700091F40E94A40960E080E00E944D0A8EE77D
:1021800092E00E94910B61E080E00E944D0A88E697
:1021900092E00E94910B80910002909101020297BF
:1021A00091F40E94A40960E080E00E944D0A8FE84B
:1021B00092E00E94910B61E080E00E944D0A88E667
:1021C00092E00E94910B809100029091010203978E
:1021D00091F40E94A40960E080E00E944D0A80EA28
:1021E00092E00E94910B61E080E00E944D0A88E637
:1021F00092E00E94910B809100029091010204975D
:1022000091F40E94A40960E080E00E944D0A84E0FD
:1022100093E00E94910B61E080E00E944D0A88E605
:1022200092E00E94910B809100029091010205972B
:1022300091F40E94A40960E080E00E944D0A81EDC3
:1022400092E00E94910B61E080E00E944D0A88E6D6
:1022500092E00E94910B80910002909101020697FA
:1022600091F40E94A40960E080E00E944D0A82EE91
:1022700092E00E94910B61E080E00E944D0A88E6A6
:1022800092E00E94910B80910002909101020797C9
:1022900009F01CCF0E94A40960E080E00E944D0A72
:1022A00083EF92E00E94910B61E080E00E944D0A72
:1022B00088E692E00E94910B09CF823309F006CFA5
:1022C000C230D1050CF402CF85E592E00E94930B59
:1022D0002197811144CF47CF8230910529F4B092E4
:1022E0003003A0922F03FECE8330910529F4D092C3
:1022F0003003C0922F03F6CE8430910529F4F0927A
:102300003003E0922F03EECE8530910529F410932F
:10231000300300932F03E6CE8630910529F4909286
:10232000300380922F03DECE079709F0DBCE709248
:10233000300360922F03D6CE803321F487E792E0FA
:102340000E94FD0B87E792E00E94930B8823A1F087
:102350000E94A409DF91CF911F910F91FF90EF9000
:10236000DF90CF90BF90AF909F908F907F906F90B5
:102370005F904F900C94CD11DF91CF911F910F91F1
:10238000FF90EF90DF90CF90BF90AF909F908F9095
:102390007F906F905F904F90089570E060E08BE8C1
:1023A00094E00E944A0770E060E088E894E00E94B0
:1023B0004A0770E060E085E894E00E944A0770E018
:1023C00060E087E00E94180670E060E086E00E940E
:1023D000180670E060E084E00E94180670E060E09B
:1023E00083E00E9418060C94370C1F920F920FB6D0
:1023F0000F9211240BB60F922F933F934F935F933D
:102400006F937F938F939F93AF93BF93EF93FF93BC
:102410008091D4039091D503A091D603B091D703B6
:10242000892B8A2B8B2BE1F19091D303E091D1037F
:10243000F091D2038081892780838091D403909189
:10244000D503A091D603B091D703181619061A0622
:102450001B069CF48091D4039091D503A091D603E0
:10246000B091D7030197A109B1098093D403909348
:10247000D503A093D603B093D703FF91EF91BF91FB
:10248000AF919F918F917F916F915F914F913F910C
:102490002F910F900BBE0F900FBE0F901F901895AD
:1024A000809102020E943C04E8CF1F920F920FB667
:1024B0000F9211240BB60F922F933F934F935F937C
:1024C0006F937F938F939F93AF93BF93EF93FF93FC
:1024D0008CED93E00E94B702FF91EF91BF91AF9115
:1024E0009F918F917F916F915F914F913F912F912C
:1024F0000F900BBE0F900FBE0F901F9018951F925C
:102500000F920FB60F9211240BB60F922F938F9349
:102510009F93EF93FF93E091EC03F091ED038081A3
:10252000E091F203F091F30382FD1DC09081809150
:10253000F5038F5F8F732091F603821741F0E091CE
:10254000F503F0E0E452FC4F958F8093F503FF9183
:10255000EF919F918F912F910F900BBE0F900FBE17
:102560000F901F9018958081F2CF1F920F920FB697
:102570000F9211242F933F938F939F93AF93BF9309
:102580008091D8039091D903A091DA03B091DB0335
:102590003091CC0323E0230F2D3758F50196A11D70
:1025A000B11D2093CC038093D8039093D903A093BB
:1025B000DA03B093DB038091CD039091CE03A09119
:1025C000CF03B091D0030196A11DB11D8093CD031F
:1025D0009093CE03A093CF03B093D003BF91AF915C
:1025E0009F918F913F912F910F900FBE0F901F9051
:1025F000189526E8230F0296A11DB11DD2CF1F9278
:102600000F920FB60F9211240BB60F922F933F9398
:102610004F935F936F937F938F939F93AF93BF93EA
:10262000EF93FF9348E251E064E271E090E080E0D4
:102630000E944E08FF91EF91BF91AF919F918F91B2
:102640007F916F915F914F913F912F910F900BBEB2
:102650000F900FBE0F901F9018951F920F920FB6FC
:102660000F9211240BB60F922F933F934F935F93CA
:102670006F937F938F939F93AF93BF93EF93FF934A
:1026800048EA50E064EA70E083E090E00E944E087F
:10269000FF91EF91BF91AF919F918F917F916F913A
:1026A0005F914F913F912F910F900BBE0F900FBEF6
:1026B0000F901F9018951F920F920FB60F92112432
:1026C0000BB60F922F933F934F935F936F937F932C
:1026D0008F939F93AF93BF93EF93FF9348E950E09D
:1026E00064E970E082E090E00E944E08FF91EF9173
:1026F000BF91AF919F918F917F916F915F914F911A
:102700003F912F910F900BBE0F900FBE0F901F9017
:1027100018951F920F920FB60F9211240BB60F92BD
:102720002F933F934F935F936F937F938F939F93D9
:10273000AF93BF93EF93FF9348E850E064E870E0F5
:1027400081E090E00E944E08FF91EF91BF91AF9120
:102750009F918F917F916F915F914F913F912F91B9
:102760000F900BBE0F900FBE0F901F901895FC019D
:1027700090913B03903398F481E0890F80933B0361
:102780009083892F90E0FC01EE0FFF1FE80FF91FE7
:10279000E45CFC4F88EB9BE09283818308958FEF8C
:1027A000808308951092DF031092DE0388EE93E099
:1027B000A0E0B0E08093E0039093E103A093E203F4
:1027C000B093E30385E292E09093DD038093DC0312
:1027D00085EC90E09093E9038093E80384EC90E02B
:1027E0009093EB038093EA0380EC90E09093ED03E9
:1027F0008093EC0381EC90E09093EF038093EE03E1
:1028000082EC90E09093F1038093F00386EC90E0EB
:102810009093F3038093F2031092F5031092F60362
:102820001092F7031092F8031092A8041092AC04CF
:102830001092AB041092AD0483E492E09093A7044D
:102840008093A604E2ECF4E01082148213821582D5
:10285000369684E0EE3FF807B9F787E092E0909370
:1028600009058093080583E092E090930B0580931F
:102870000A0584E080930C0580930D058BE092E0BF
:1028800090930705809306058AE090E090930F05EA
:1028900080930E0584EF91E09093110580931005CD
:1028A0001092140510921305109202051092030560
:1028B00010920405109205051092120510929104D1
:1028C0001092900487E392E090938F0480938E049B
:1028D0008DE0809392048FEF809393048CE080933B
:1028E00094048BE0809395048AE08093960489E0B9
:1028F0008093970488E08093980410929904109232
:102900009A0410929B0410929C0410929D0481E002
:102910000E94AC098BE894E00E94B71388E894E029
:102920000E94B71385E894E00E94B7138FE794E004
:102930000E94D40B89E794E00C94D40B789484B56E
:10294000826084BD84B5816084BD85B5826085BDAB
:1029500085B5816085BD80916E00816080936E0039
:10296000109281008091810082608093810080912B
:1029700081008160809381008091800081608093DC
:1029800080008091B10084608093B1008091B0009C
:1029900081608093B000809191008260809391006B
:1029A000809191008160809391008091900081607E
:1029B000809390008091A10082608093A10080911B
:1029C000A10081608093A1008091A000816080932C
:1029D000A0008091210182608093210180912101DA
:1029E000816080932101809120018160809320018A
:1029F00080917A00846080937A0080917A0082606E
:102A000080937A0080917A00816080937A0080912F
:102A10007A00806880937A001092C100E091EC0304
:102A2000F091ED0382E08083E091E803F091E90307
:102A30001082E091EA03F091EB038FEC8083109217
:102A4000F403E091F003F091F10386E08083E091DC
:102A5000EE03F091EF03808180618083E091EE03CB
:102A6000F091EF03808188608083E091EE03F09124
:102A7000EF03808180688083E091EE03F091EF03A3
:102A800080818F7D808382E00E94AC096EE070E0DF
:102A90008BE894E00E94C6076FE070E088E894E05D
:102AA0000E94C60760E170E085E894E00E94C607D6
:102AB00061E08FE10E94810461E087E00E9481046F
:102AC00061E086E00E94810461E084E00E9481046C
:102AD00061E083E00E9481040E94370C0E9446035B
:102AE000FBCF8091790490917A04009711F00E94B5
:102AF000D11880917F0490918004009711F00C947C
:102B0000D11808950E94C41508F481E00895E8944E
:102B100009C097FB3EF490958095709561957F4F25
:102B20008F4F9F4F9923A9F0F92F96E9BB279395D3
:102B3000F695879577956795B795F111F8CFFAF4E3
:102B4000BB0F11F460FF1BC06F5F7F4F8F4F9F4F14
:102B500016C0882311F096E911C0772321F09EE872
:102B6000872F762F05C0662371F096E8862F70E0D8
:102B700060E02AF09A95660F771F881FDAF7880FB2
:102B80009695879597F90895990F0008550FAA0B08
:102B9000E0E8FEEF16161706E807F907C0F0121670
:102BA0001306E407F50798F0621B730B840B950B73
:102BB00039F40A2661F0232B242B252B21F40895C8
:102BC0000A2609F4A140A6958FEF811D811D089565
:102BD0000E94FB150C946C160E945E1638F00E9441
:102BE000651620F0952311F00C9455160C945B1685
:102BF00011240C94A0160E947D1670F3959FC1F3CA
:102C0000950F50E0551F629FF001729FBB27F00D9A
:102C1000B11D639FAA27F00DB11DAA1F649F6627EF
:102C2000B00DA11D661F829F2227B00DA11D621F3E
:102C3000739FB00DA11D621F839FA00D611D221FF8
:102C4000749F3327A00D611D231F849F600D211DDC
:102C5000822F762F6A2F11249F5750409AF0F1F05F
:102C600088234AF0EE0FFF1FBB1F661F771F881FC8
:102C700091505040A9F79E3F510580F00C94551695
:102C80000C94A0165F3FE4F3983ED4F386957795B5
:102C90006795B795F795E7959F5FC1F7FE2B880F6E
:102CA000911D9695879597F9089597F99F6780E804
:102CB00070E060E008959FEF80EC089500240A948E
:102CC0001616170618060906089500240A94121607
:102CD0001306140605060895092E0394000C11F43A
:102CE000882352F0BB0F40F4BF2B11F460FF04C0E7
:102CF0006F5F7F4F8F4F9F4F089557FD9058440F40
:102D0000551F59F05F3F71F04795880F97FB991F4A
:102D100061F09F3F79F08795089512161306140607
:102D2000551FF2CF4695F1DF08C016161706180694
:102D3000991FF1CF86957105610508940895E8946F
:102D4000BB2766277727CB0197F90895052E97FBB8
:102D50001EF400940E94BD1657FD07D00E94D8169D
:102D600007FC03D04EF40C94BD1650954095309559
:102D700021953F4F4F4F5F4F0895909580957095E7
:102D800061957F4F8F4F9F4F08950E94FA16A59F20
:102D9000900DB49F900DA49F800D911D1124089556
:102DA000B7FF0C94C5160E94C516821B930B08959D
:102DB000A1E21A2EAA1BBB1BFD010DC0AA1FBB1F3F
:102DC000EE1FFF1FA217B307E407F50720F0A21BB1
:102DD000B30BE40BF50B661F771F881F991F1A941E
:102DE00069F760957095809590959B01AC01BD0148
:102DF000CF010895A29FB001B39FC001A39F700DA2
:102E0000811D1124911DB29F700D811D1124911DF2
:102E100008955058BB27AA270E9421170C946C16BE
:102E20000E945E1638F00E94651620F039F49F3F2C
:102E300019F426F40C945B160EF4E095E7FB0C9461
:102E40005516E92F0E947D1658F3BA1762077307CB
:102E50008407950720F079F4A6F50C949F160EF4DC
:102E6000E0950B2EBA2FA02D0B01B90190010C019A
:102E7000CA01A0011124FF27591B99F0593F50F4B2
:102E8000503E68F11A16F040A22F232F342F44270A
:102E9000585FF3CF469537952795A795F040539502
:102EA000C9F77EF41F16BA0B620B730B840BBAF0D2
:102EB0009150A1F0FF0FBB1F661F771F881FC2F73D
:102EC0000EC0BA0F621F731F841F48F48795779551
:102ED0006795B795F7959E3F08F0B0CF9395880F0B
:102EE00008F09927EE0F9795879508950E948A1705
:102EF0000C946C160E94651658F00E945E1640F005
:102F000029F45F3F29F00C94551651110C94A0162A
:102F10000C945B160E947D1668F39923B1F3552338
:102F200091F3951B550BBB27AA27621773078407DC
:102F300038F09F5F5F4F220F331F441FAA1FA9F372
:102F400035D00E2E3AF0E0E832D091505040E69560
:102F5000001CCAF72BD0FE2F29D0660F771F881FC1
:102F6000BB1F261737074807AB07B0E809F0BB0BB4
:102F7000802DBF01FF2793585F4F3AF09E3F5105C8
:102F800078F00C9455160C94A0165F3FE4F3983E2D
:102F9000D4F3869577956795B795F7959F5FC9F7B1
:102FA000880F911D9695879597F90895E1E0660F32
:102FB000771F881FBB1F621773078407BA0720F0AB
:102FC000621B730B840BBA0BEE1F88F7E095089514
:102FD0000E94851688F09F5798F0B92F9927B7510E
:102FE000B0F0E1F0660F771F881F991F1AF0BA95AD
:102FF000C9F714C0B13091F00E949F16B1E0089556
:103000000C949F16672F782F8827B85F39F0B93F47
:10301000CCF3869577956795B395D9F73EF490955F
:103020008095709561957F4F8F4F9F4F08950E94B7
:10303000C41508F48FEF08950E94C415880B990BEE
:103040000895991B79E004C0991F961708F0961B04
:10305000881F7A95C9F780950895EE0FFF1F881F86
:103060008BBF0790F691E02D19940F931F93CF9388
:10307000DF938230910510F482E090E0E091170533
:10308000F091180530E020E0B0E0A0E0309799F42E
:103090002115310509F44AC0281B390B24303105AC
:1030A000D8F58A819B816115710589F1FB019383B4
:1030B0008283FE0111C04081518102811381481732
:1030C0005907E0F04817590799F4109761F01296E4
:1030D0000C93129713961C933296CF01DF91CF91E8
:1030E0001F910F9108950093170510931805F4CFC1
:1030F0002115310551F04217530738F0A901DB01C2
:103100009A01BD01DF01F801C1CFEF01F9CF909322
:10311000180580931705CDCFFE01E20FF31F8193B1
:1031200091932250310939832883D7CF20911505F7
:1031300030911605232B41F420911D0230911E027F
:10314000309316052093150520911B0230911C0227
:103150002115310541F42DB73EB740911F02509122
:103160002002241B350BE0911505F0911605E2179E
:10317000F307A0F42E1B3F0B2817390778F0AC019A
:103180004E5F5F4F2417350748F04E0F5F1F509377
:10319000160540931505819391939FCFF0E0E0E0F1
:1031A0009CCFCF93DF930097E9F0FC013297138215
:1031B0001282A0911705B0911805ED0130E020E0D2
:1031C0001097A1F420813181820F931F2091150562
:1031D000309116052817390709F061C0F0931605DC
:1031E000E0931505DF91CF910895EA01CE17DF072F
:1031F000E8F54A815B819E0141155105B1F7E9016E
:10320000FB83EA8349915991C40FD51FEC17FD0741
:1032100061F4808191810296840F951FE901998361
:103220008883828193819B838A83F0E0E0E0129619
:103230008D919C9113970097B9F52D913C91119721
:10324000CD010296820F931F20911505309116052E
:103250002817390739F6309751F510921805109252
:103260001705B0931605A0931505BCCFD383C28371
:1032700040815181840F951FC817D90761F44E5FB3
:103280005F4F88819981480F591F518340838A81FC
:103290009B81938382832115310509F0B0CFF09390
:1032A0001805E09317059ECFFD01DC01C0CF138206
:1032B0001282D7CF4F925F926F927F928F929F929E
:1032C000AF92BF92CF92DF92EF92FF920F931F9334
:1032D000CF93DF938C01009799F4CB01DF91CF91CD
:1032E0001F910F91FF90EF90DF90CF90BF90AF9024
:1032F0009F908F907F906F905F904F900C943518B7
:10330000FC01E60FF71F9C0122503109E217F30779
:1033100008F4AEC0D901CD91DC911197C617D7073B
:1033200020F1C530D10578F0CE01049786179707B4
:1033300050F0C61BD70B2297C193D1936D937C930A
:10334000CF010E94D118C801DF91CF911F910F9139
:10335000FF90EF90DF90CF90BF90AF909F908F90B5
:103360007F906F905F904F9008955B01AC1ABD0AFB
:103370004C018C0E9D1EA0911705B0911805512C83
:10338000412CF12CE12C109731F58091150590918D
:1033900016058815990509F05CC04616570608F011
:1033A00058C080911B0290911C02009741F48DB788
:1033B0009EB740911F0250912002841B950BE81785
:1033C000F90708F055C0F0931605E0931505F901CB
:1033D00071836083B8CF8D919C91119712966C90F8
:1033E000129713967C901397A815B90559F56C019F
:1033F00042E0C40ED11CCA14DB0420F1AC014A190E
:103400005B09DA011296159780F06282738251830C
:103410004083D9016D937C93E114F10471F0D701DD
:103420001396FC93EE9312978ECF22968C0F9D1FCE
:10343000F90191838083F301EFCFF0931805E093B6
:10344000170581CF4816590608F42C017D01D301D8
:103450009ACFCB010E9435187C01009749F0AE014C
:10346000B8010E943B1AC8010E94D11887016BCF96
:1034700010E000E068CFFB01DC0102C001900D927A
:1034800041505040D8F70895FB01DC018D91019027
:1034900080190110D9F3990B0895FB01DC0101900B
:1034A0000D920020E1F7089511E0C6E6D1E000E0BA
:1034B00006C0802FFE010E942D182196011DC736DF
:0C34C000D10780E00807A9F7F894FFCFBF
:1034CC000100FF1A1B1C1D161718193738392F3419
:1034DC003536783132332D63303D2B0000190580A1
:1034EC000000000000D902430270022603A1027FF3
:1034FC00029302000000005C0A43024707460700E3
:10350C00000000BD04380407046E616E00696E662D
:10351C00006F766600646F677275004B6C696D6145
:10352C00204163696C6469004F6461205369636175
:10353C006B6C6967693A0079616E6C6973004B6CEE
:10354C00696D61204465726563653A323443004BA2
:10355C006C696D61204465726563653A3233430072
:10356C004B6C696D61204465726563653A32324318
:10357C00004B6C696D61204465726563653B32314B
:10358C0043004F646120536963616B6C6967693BED
:10359C00004B6C696D61204465726563653A32302D
:1035AC0043004B6C696D61204465726563653A310B
:1035BC003943004B6C696D61204465726563653AF3
:1035CC00313843004B6C696D6120446572656365ED
:0635DC003A323143000009
:00000001FF
